:02000002D0002C
:1040000000400D0044520D00000006000C000501A8
:084010000401BD0B00000000DB
:04401800F44F0D0054
:10401C0009480A49884208B505D0094A824202D0AB
:10402C00121A00F09FFF0748074A0021121A00F0ED
:10403C00A7FF014808BD00BFC0E50320B4510D0027
:10404C0028E6032028E60320F0E7032070B5074E8E
:10405C00074C00F095FEA41BA4080025A54200D136
:10406C0070BD56F8043B98470135F7E788510D00B1
:10407C00AC510D0000F048B808B500F07BF8BDE875
:10408C00084000F03FBE00F041BA00F047BA00789B
:10409C00B0FA80F0400970470123037070470000AC
:1040AC0008B5054C00F0A4FD214600F056FC4FF479
:1040BC007A7000F043FAF5E708500D0008B5054C8E
:1040CC0000F096FD214600F048FC4FF4FA7000F029
:1040DC0035FAF5E70A500D0008B50121072000F06C
:1040EC00D0FEFA2000F02AFA0021072000F0C9FEC9
:1040FC00FA2000F023FAF0E710B50446006808B186
:10410C0000F00CFA204610BD37B50121072000F055
:10411C00A7FE002400F06CFD4FF480654FF416519F
:10412C0000F05AFDCDE900450B490C4B0C4802221E
:10413C0000F040F8CDE900450A4B07490A48022235
:10414C0000F038F8CDE90045084B03490848022235
:10415C0000F030F803B030BD0C500D00AD400D0038
:10416C0038E60320C9400D003CE60320E5400D0075
:10417C0040E603207047000010B500210A4C0120D6
:10418C0000F040F900232360A380A3710320A3F562
:10419C008033A36000F026F92046044A0449BDE8A8
:1041AC00104000F0C7BE00BF2CE6032028E6032019
:1041BC0005410D0008B5024B1B685B68019308BDF7
:1041CC004802030008B5024B1B685B6C019308BDE9
:1041DC004802030008B5024B1B689B6C019308BD99
:1041EC004802030008B5024B1B685B68019308BDCD
:1041FC001802030008B5024B1B685B69019308BDEC
:10420C001802030008B5024B1B689B68019308BD9C
:10421C002C02030008B5024B1B68DB68019308BD38
:10422C002C02030008B5024B1B681B69019308BDE7
:10423C002C02030008B5024B1B681B6A019308BDD6
:10424C002802030008B5024B1B685B6A019308BD8A
:10425C002802030008B5024B1B689B6A019308BD3A
:10426C002802030008B5024B1B68DB6A019308BDEA
:10427C002802030008B5024B1B681B6B019308BD99
:10428C002802030008B5024B1B685B6B019308BD49
:10429C002802030008B5024B1B681B6C019308BD78
:1042AC002802030008B5024B1B685B69019308BD2B
:1042BC006402030008B5024B1B689B68019308BDA0
:1042CC006802030008B5024B1B68DB68019308BD4C
:1042DC006802030008B5024B1B68DB69019308BD3B
:1042EC003002030008B5024B1B681B6A019308BD22
:1042FC003002030008B5024B1B681B68019308BD14
:10430C003C02030008B5024B1B68DB68019308BD37
:10431C003C02030008B5024B1B681B69019308BDE6
:10432C003C02030008B5024B1B685B69019308BD96
:10433C003C02030008B5024B1B689B69019308BD46
:10434C003C02030008B5024B1B68DB69019308BDF6
:10435C003C02030008B5024B1B681B6A019308BDA5
:10436C003C02030008B5024B1B689B6A019308BD15
:10437C003C02030008B5024B1B681B68019308BD87
:10438C004C02030008B5024B1B685B68019308BD27
:10439C004C02030008B5024B1B681B69019308BD56
:1043AC004C02030008B5024B1B685B69019308BD06
:1043BC004C02030008B5024B1B689B69019308BDB6
:1043CC004C02030008B5024B1B68DB69019308BD66
:1043DC004C02030008B5024B1B681B6A019308BD15
:1043EC004C02030008B5024B1B685B68019308BDC7
:1043FC002002030008B5024B1B685B69019308BDE2
:10440C002002030008B5024B1B68DB6A019308BD50
:10441C002002030008B5034B1B68D3F888300193C6
:10442C0008BD00002002030008B5034B1B68D3F83D
:10443C009430019308BD00002002030008B5024B24
:10444C001B68DB6B019308BD4402030008B5024BEB
:10445C001B685B68019308BD4002030008B5024B62
:10446C001B689B68019308BD4002030008B5024B12
:10447C001B68DB68019308BD4002030008B5024BC2
:10448C001B681B69019308BD4002030008B5024B71
:10449C001B685B69019308BD4002030008B5024B21
:1044AC001B689B69019308BD4002030008B5024BD1
:1044BC001B68DB69019308BD4002030008B5024B81
:1044CC001B681B6A019308BD4002030008B5024B30
:1044DC001B681B6B019308BD4002030008B5024B1F
:1044EC001B685B6B019308BD4002030008B5024BCF
:1044FC001B681B6C019308BD4002030008B5024BFE
:10450C001B685B6C019308BD4002030008B5024BAD
:10451C001B681B68019308BD1C02030008B5024B05
:10452C001B685B68019308BD1C02030008B5024BB5
:10453C001B685B6C019308BD1C0203000021FFF794
:10454C0059BF10B50446006808B1FFF743FE20467A
:10455C0010BD10B58368044613B103220146984779
:10456C00204610BD10B5064C002320462360FFF7F3
:10457C0029FE2046034A0449BDE8104000F0DABC8D
:10458C0044E6032028E603204F450D000022406836
:10459C001146FFF793BF002240681146FFF79EBFFC
:1045AC0040680022FFF792BF4068002281F00101B1
:1045BC00FFF77CBF002340681A461946FFF76EBF11
:1045CC00002340681A461946FFF760BF0022406876
:1045DC001146FFF753BF002240681146FFF73EBF5C
:1045EC00406800220221FFF741BF002340681A46B1
:1045FC00FFF72CBF024B03225A60024A1A60704725
:10460C0048E603201C500D007047F8B506461546C9
:10461C000C468F18BC4206D0336814F8011B9B68FB
:10462C0030469847F6E72846F8BD007C0022FFF795
:10463C0001BE007C0021FFF705BE007C0021FFF7C6
:10464C0009BE007C0021FFF70DBE007C0021FFF7A6
:10465C0011BE10B51421044600F071FC204610BDAB
:10466C0010B54FF47A73044608460021C4E90113CF
:10467C00034B236020741146FFF70CFE204610BD3F
:10468C0058500D00704710B51821044600F057FC27
:10469C00204610BDF0B5037D062B8DB00E4600F103
:1046AC0004074FF0000412D000F1080515F8011DA5
:1046BC000A22304600F05BF9AF42044419D0002CBA
:1046CC00F4D02E21304600F039F90444EEE72F23C4
:1046DC006A4639460A208DF80040FFF7E3FD68462C
:1046EC0000F07AFC33680246DB686946304698472E
:1046FC00044620460DB0F0BD10B5054B0446112202
:10470C0040F8043B002100F03BFC204610BD00BFEC
:10471C0080500D000346074A10B543F8042B01F1F5
:10472C00100251F8044B43F8044B9142F9D10A782A
:10473C001A7010BD80500D0010B59DF8084044EA69
:10474C00032343EA024242EA0161042341600375F8
:10475C0010BD000013B5054B0360CB7800938B782C
:10476C004A780978FFF7E8FF02B010BD80500D00C1
:10477C00014B024A1A60704750E603208C500D0022
:10478C00002340681A46FFF761BE406800220221F0
:10479C00FFF76CBE002240681146FFF75FBE002297
:1047AC0040681146FFF76ABE002340681A46194656
:1047BC00FFF76CBE002340681A461946FFF76EBE21
:1047CC0040680021FFF792BE40680021FFF796BEBB
:1047DC004068002281F00101FFF768BE40680022AA
:1047EC00FFF774BE002240681146FFF777BE002227
:1047FC0040681146FFF762BE2DE9F043002495B0E6
:10480C0016460D460746FFF777FF214618220EA8DD
:10481C00009400F0B5FB4023CDE90C3421466B46E7
:10482C000CAA3046FFF74EFD044600284CD1024638
:10483C0001216868FFF722FE022180462246686843
:10484C00FFF71CFE009E81462146002E3CD000291D
:10485C003AD17368022B03D00A2B11D0F669F4E716
:10486C00B8F1000F0AD0716906A8043107ADFFF743
:10487C0071FF0FCD3C1D0FC42B6823704146EDE733
:10488C00B9F1000F01D14946E8E77469102201A87B
:10489C0000F076FB06238DF8143001AD04F108030B
:1048AC001834186859682A4603C20833A3421546BF
:1048BC00F7D101A906A807ADFFF72CFF0FCD3C1DC2
:1048CC000FC42B682370DEE70098FFF7F3FC384623
:1048DC0015B0BDE8F0830000024B034A1A600022B9
:1048EC005A60704754E6032098500D00F8B5064600
:1048FC000D468F180024BD420CD0336815F8011BEF
:10490C009B6830469847031E01DB1C44F3E7002CE0
:10491C0008BF1C462046F8BD13B50446084659B1DD
:10492C00019100F059FB23680199DB68024620468F
:10493C0002B0BDE81040184702B010BD03689B6878
:10494C00184738B50D210546FFF7F8FF0A21044634
:10495C002846FFF7F3FF204438BD38B50546FFF76E
:10496C00DBFF04462846FFF7ECFF204438BD30B58A
:10497C008BB000238DF82430012A98BF0A2209AC91
:10498C000D46B1FBF2F101FB125303F0FF03092BAF
:10499C0094BF30333733DBB2AA4204F8013DEFD970
:1049AC002146FFF7B9FF0BB030BD10B50446FFF739
:1049BC00D0FD204610BD00000348044A04490023E2
:1049CC00836000F0B7BA00BF5CE6032028E6032042
:1049DC00B7490D0010B5044608462170FFF77AFC64
:1049EC0000236360204610BD10B5094B094C022210
:1049FC0000201A60084B2060A080A071A360FFF714
:104A0C00F1FC2046054A0649BDE8104000F092BA78
:104A1C0078E603206CE603200000FFFF28E6032065
:104A2C0005410D00024B1A68024B1A60704700BF1B
:104A3C00C0E503207CE6032070474174704708B53D
:104A4C00007CFFF78FFC20EAE07008BD08B5007C05
:104A5C00FFF760FC20EAE07008BD08B5007CFFF7AA
:104A6C0069FC40EAE07008BD08B5007CFFF75AFC11
:104A7C0040EAE07008BD007CFFF764BC37B5457CAC
:104A8C0004462DB1207C03B0BDE83040FFF73ABCA2
:104A9C00007C0191FFF766FC00280199F2DC2846A6
:104AAC0003B030BD10B51421044600F048FA20467E
:104ABC0010BD000010B54FF0000C0446084611461E
:104ACC004FF47A72C4E901C2044A226001222074B4
:104ADC0062741A46FFF70EFC204610BDF0500D0014
:104AEC0013B50E4C2178BFF35B8F11F0010112D17D
:104AFC0020460191FFF7CBFA019960B1084A094BA6
:104B0C000948FFF7D7FF2046FFF7C6FA074A0849BE
:104B1C00054800F00FFA044802B010BD80E60320EF
:104B2C0084E6032008E703208CE7032028E6032013
:104B3C00454A0D0041747047704708B50021007C50
:104B4C00FFF738FC40EAE07008BD08B50121007C95
:104B5C00FFF730FC40EAE07008BD08B5007CFFF7B9
:104B6C0021FC20EAE07008BD08B5007CFFF712FCC0
:104B7C0020EAE07008BD13B50446007C0191FFF7F4
:104B8C0011FC0028019901DC607C20B1207CFFF72E
:104B9C0019FC20EAE07002B010BD007CFFF71ABCD3
:104BAC0010B51421044600F0CAF9204610BD0000CF
:104BBC0010B54FF47A73044608460021C4E901137A
:104BCC00044B23600123207463741146FFF7D2FB5E
:104BDC00204610BD20510D00007C0022FFF7D2BBF7
:104BEC0010B514220446002100F0CAF9204610BD6D
:104BFC0010B5104C88B003A8FFF7F2FF2178BFF373
:104C0C005B8F11F0010111D120460191FFF73FFAA2
:104C1C00019958B103AA0848FFF7CAFF2046FFF7CD
:104C2C003BFA064A0649044800F084F9024808B0E9
:104C3C0010BD00BFA0E70320A4E7032028E6032053
:104C4C00454B0D00002240681146FFF717BC0022AF
:104C5C0040681146FFF732BC002240681146FFF74E
:104C6C003DBC40680022FFF731BC4068002281F057
:104C7C000101FFF71BBC002340681A461946FFF7D9
:104C8C000DBC002340681A461946FFF7FFBB0022F3
:104C9C0040681146FFF7E2BB406800220221FFF793
:104CAC00E5BB002340681A46FFF7D0BB024B042239
:104CBC005A60024A1A607047B8E7032050510D0041
:104CCC00014B1860704700BFC4E5032008B50B4BBF
:104CDC0043B1FFF78DFF03681B699847002801DD7E
:104CEC00AFF30080064B43B1FFF7FAFE03681B6974
:104CFC009847002801DDAFF3008008BD00000000DC
:104D0C000000000008B5FFF7E1FFFFF773FA014B55
:104D1C00186008BDD4E703200248034A0349121A5D
:104D2C0000F020B900F4032004F40320B0510D006E
:104D3C0007B5002300931A466FF07701FFF774FB59
:104D4C0003B05DF804FB000007B543880A2B08D0BC
:104D5C00502B0BD1094B1B684BB103B05DF804EB26
:104D6C001847FFF7E5FF03B05DF804FB0023009341
:104D7C001A466FF07701FFF757FBF4E7C4E70320FF
:104D8C0038B5124C1248134D0021FFF7CFFB2368A6
:104D9C00AB42114B0CBF012200221A7002D0FFF75C
:104DAC00BBFF2560FFF71EFA044600F0F1F80B4B31
:104DBC0013B12046AFF3008000210848FFF73EFBFB
:104DCC00BDE8384006480021FFF724BB00F403205F
:104DDC00CD4C0D001E1C279AC0E7032000000000DC
:104DEC00554D0D00232813B502D9002002B010BD7B
:104DFC00A0F10B03022B1AD8174C2178BFF35B8F51
:104E0C0011F001010BD120460191FFF740F90199F6
:104E1C0028B11248FFF7DEFD2046FFF73DF90F4B96
:104E2C001878FFF75FFA0028DFD10120DEE70128B0
:104E3C0009D800F057F80021007CFFF723FA80F026
:104E4C000100C0B2D2E709380128EED8FFF748FEBE
:104E5C00007CFFF77FFAF2E7C8E70320CCE70320DA
:104E6C00232838B504460D460AD8FF2908D0FFF789
:104E7C00B9FF28B129462046BDE83840FFF7C2B932
:104E8C0038BD38B504460D46FFF7C4F9FF2810D0DD
:104E9C00062804D84D2323FA00F0C30709D4204672
:104EAC00FFF7A0FF28B129462046BDE83840FFF7A0
:104EBC00B9B938BD38B500232025438014230446E6
:104ECC000380856005610649284600F03AF80449DC
:104EDC006060284600F035F8E060204638BD00BF21
:104EEC0084510D0030B50F4D2978BFF35B8F11F055
:104EFC00010487B013D12846FFF7C9F878B101A88F
:104F0C00FFF7D8FF01AA21460748FFF7A9FB28465F
:104F1C00FFF7C2F8054A0649034800F00BF80248AF
:104F2C0007B030BDD8E70320DCE7032028E60320D8
:104F3C0015460D000B460146184600F005B8FFF764
:104F4C00A4B8FFF7A0B8000010B5054C13462CB15F
:104F5C000A4601460220AFF3008010BD2046FCE754
:104F6C00000000000A44914200F1FF3300D1704769
:104F7C0010B511F8014B03F8014F9142F9D110BD56
:104F8C0002440346934200D1704703F8011BF9E732
:104F9C0038B50D4B1D68AB6B04467BB91820FFF779
:104FAC00B5FA0A4A0A4BA863C0E90023094B83608F
:104FBC000B23838101220023C0E90423AB6B002265
:104FCC001C615A6138BD00BFC4E503200E33CDAB64
:104FDC0034126DE6ECDE0500034613F8012B002AB3
:104FEC00FBD1181A013870471D400D0059400D00B7
:104FFC0081400D0085400D000000000031003200A2
:10500C00616E794E616D65000000000000000000CB
:10501C00F7450D00ED450D00E3450D00D9450D009C
:10502C00CD450D00C1450D00CD470D00D5470D00F8
:10503C00B5450D00AD450D00A3450D0099450D007E
:10504C0005480D00000000000000000015460D0092
:10505C005F460D0037460D0017460D003F460D000C
:10506C0047460D004F460D0057460D00000000004E
:10507C0000000000A1460D0091460D0093460D0066
:10508C006170700000000000000000008D470D00F2
:10509C0097470D00A1470D00AB470D00B5470D001C
:1050AC00C1470D00CD470D00D5470D00DD470D0064
:1050BC00E9470D00F1470D00FB470D0005480D00B9
:1050CC0025592D256D2D25645425483A254D3A2515
:1050DC0053257A0061736374696D650000000000EC
:1050EC0000000000454A0D00B14A0D00894A0D0030
:1050FC00F9480D00594A0D00754A0D00674A0D001C
:10510C00834A0D00474A0D004B4A0D000000000079
:10511C0000000000454B0D00AD4B0D00834B0D0006
:10512C00F9480D00754B0D00474B0D00574B0D000A
:10513C00A74B0D00674B0D00414B0D00000000000C
:10514C0000000000AF4C0D00A54C0D009B4C0D0059
:10515C00514C0D008F4C0D00834C0D00CD470D00B4
:10516C00D5470D00774C0D006F4C0D00654C0D00B4
:10517C005B4C0D0005480D000000000085410D0042
:10518C0071450D0001460D007D470D00E5480D00F1
:10519C00C5490D00F5490D00314A0D00B94C0D0003
:0451AC0000000000FF
:0451B00000000000FB
:1051B400E0500D00C8E503200000000000000000DE
:1051C40000000000000000000000000000000000DB
:1051D40000000000000000000000000000000000CB
:1051E40000000000000000000000000000000000BB
:1051F40000000000000000000000000000000000AB
:10520400000000000000000000000000000000009A
:08521400000000000000000092
:10521C00FFFFFFFF00000102030405060708090A4F
:10522C000B0C0D0E0F101112131415161718191A4A
:08523C001B1C1D1E1F20280091
:045244007856341252
:04000003D000401CCD
:00000001FF
